{
  "abi": [
    {
      "inputs": [
        {
          "internalType": "address",
          "name": "_pool",
          "type": "address"
        },
        {
          "internalType": "address",
          "name": "uiPoolDataProviderAddress",
          "type": "address"
        },
        {
          "internalType": "address",
          "name": "_PoolAddressesProvider",
          "type": "address"
        },
        {
          "internalType": "address",
          "name": "_swapRouter",
          "type": "address"
        }
      ],
      "stateMutability": "nonpayable",
      "type": "constructor"
    },
    {
      "inputs": [
        {
          "internalType": "address[]",
          "name": "addressesList",
          "type": "address[]"
        }
      ],
      "name": "areLiquidatable",
      "outputs": [
        {
          "internalType": "address[]",
          "name": "",
          "type": "address[]"
        }
      ],
      "stateMutability": "view",
      "type": "function"
    },
    {
      "inputs": [
        {
          "internalType": "address",
          "name": "asset",
          "type": "address"
        },
        {
          "internalType": "uint256",
          "name": "amount",
          "type": "uint256"
        },
        {
          "internalType": "uint256",
          "name": "premium",
          "type": "uint256"
        },
        {
          "internalType": "address",
          "name": "initiator",
          "type": "address"
        },
        {
          "internalType": "bytes",
          "name": "params",
          "type": "bytes"
        }
      ],
      "name": "executeOperation",
      "outputs": [
        {
          "internalType": "bool",
          "name": "",
          "type": "bool"
        }
      ],
      "stateMutability": "nonpayable",
      "type": "function"
    },
    {
      "inputs": [],
      "name": "getOwner",
      "outputs": [
        {
          "internalType": "address",
          "name": "",
          "type": "address"
        }
      ],
      "stateMutability": "view",
      "type": "function"
    },
    {
      "inputs": [
        {
          "internalType": "address[]",
          "name": "addressesList",
          "type": "address[]"
        }
      ],
      "name": "getUserReservesData",
      "outputs": [
        {
          "components": [
            {
              "internalType": "address",
              "name": "underlyingAsset",
              "type": "address"
            },
            {
              "internalType": "uint256",
              "name": "scaledATokenBalance",
              "type": "uint256"
            },
            {
              "internalType": "bool",
              "name": "usageAsCollateralEnabledOnUser",
              "type": "bool"
            },
            {
              "internalType": "uint256",
              "name": "stableBorrowRate",
              "type": "uint256"
            },
            {
              "internalType": "uint256",
              "name": "scaledVariableDebt",
              "type": "uint256"
            },
            {
              "internalType": "uint256",
              "name": "principalStableDebt",
              "type": "uint256"
            },
            {
              "internalType": "uint256",
              "name": "stableBorrowLastUpdateTimestamp",
              "type": "uint256"
            }
          ],
          "internalType": "struct IUiPoolDataProviderV3.UserReserveData[][]",
          "name": "",
          "type": "tuple[][]"
        }
      ],
      "stateMutability": "view",
      "type": "function"
    },
    {
      "inputs": [
        {
          "internalType": "address",
          "name": "collateralAsset",
          "type": "address"
        },
        {
          "internalType": "address",
          "name": "debtAsset",
          "type": "address"
        },
        {
          "internalType": "address",
          "name": "liquidatableUser",
          "type": "address"
        },
        {
          "internalType": "uint256",
          "name": "debtToCover",
          "type": "uint256"
        }
      ],
      "name": "liquidate",
      "outputs": [],
      "stateMutability": "nonpayable",
      "type": "function"
    },
    {
      "inputs": [],
      "name": "owner",
      "outputs": [
        {
          "internalType": "address",
          "name": "",
          "type": "address"
        }
      ],
      "stateMutability": "view",
      "type": "function"
    },
    {
      "inputs": [],
      "name": "swapRouter",
      "outputs": [
        {
          "internalType": "contract ISwapRouter",
          "name": "",
          "type": "address"
        }
      ],
      "stateMutability": "view",
      "type": "function"
    }
  ],
  "bytecode": {
    "object": "0x60c034620000e357601f6200191438819003918201601f19168301916001600160401b03831184841017620000e857808492608094604052833981010312620000e3576200004d81620000fe565b906200005c60208201620000fe565b6200007860606200007060408501620000fe565b9301620000fe565b9160018060a01b03938480938160018060a01b031993168360005416176000551681600154161760015533906002541617600255166080521660a052604051611800908162000114823960805181610229015260a051818181608301528181610f0b01526110cb0152f35b600080fd5b634e487b7160e01b600052604160045260246000fd5b51906001600160a01b0382168203620000e35756fe608080604052600436101561001357600080fd5b600090813560e01c9081631b11d0ff14610b315750806354ee9f2214610992578063893d20e8146109695780638da5cb5b14610969578063aab3f86814610436578063b11e6c73146100b55763c31c9c071461006e57600080fd5b346100b257806003193601126100b2576040517f00000000000000000000000000000000000000000000000000000000000000006001600160a01b03168152602090f35b80fd5b50346100b2576100c4366114e2565b91906100db60018060a01b0360025416331461152e565b6100e483611609565b926100f260405194856115e8565b808452601f1961010182611609565b01835b8181106104235750506001546001600160a01b031690835b818110610201578585604051918291602080840190808552835180925260408501928160408460051b880101950193815b84831061015a5787870388f35b91939583959750603f9391931989820301845287519082808351928381520192019084905b8082106101a257505050908060019298019301930190928796959394929461014d565b919360e0600192948651848060a01b0381511682528381015184830152604081015115156040830152606080820151908301526080808201519083015260a0808201519083015260c0809101519082015201940192018793929161017f565b908161021a61021587989697948489611677565b61169d565b6040516301465d3360e61b81527f00000000000000000000000000000000000000000000000000000000000000006001600160a01b03908116600483015290911660248201528381604481885afa908115610418578491610298575b509061028c9161028682886116b1565b52611652565b9091509493929461011c565b929350503d918288823e6102ac83826115e8565b60408184810103126104145780516001600160401b038111610410578101838201601f820112156104105780516102e281611609565b946102f060405196876115e8565b8186526020860192818501602060e085028301011161040c57908160208d9998979695949301935b602060e0850283010185106103465750505050506020015160ff811603610342579061028c610276565b8380fd5b9091929394959697985060e085848801031261040857604051908160e08101106001600160401b0360e0840111176103f25760e082016040528551906001600160a01b03821682036103ee578260209260e0945282880151838201526103ae604089016116c5565b6040820152606080890151908201526080808901519082015260a0808901519082015260c0808901519082015281520194019291908c9897969594610318565b8e80fd5b634e487b7160e01b600052604160045260246000fd5b8c80fd5b8b80fd5b8880fd5b8780fd5b6040513d86823e3d90fd5b6060602082880181019190915201610104565b50346100b25760803660031901126100b2576104506114cc565b6001600160a01b039060249081358381169081900361083a5760443584811680910361083a576064359185841691604051926370a0823160e01b9485855230600486015260209889868a81865afa95861561095e578b9661092f575b506040518781523060048201528a818b81895afa9081156108fb578b91610906575b5050610528866040516104e081611597565b603181527f4c49513a20436f6c6c61746572616c2062616c616e6365206265666f726520468d820152700261013103634b8bab4b230ba34b7b71d1607d1b6040820152611733565b60405193838b860152604085015281606085015260608452610549846115cd565b6040518781523060048201528a818b81895afa80156108fb578c906108cc575b6105b6915060405161057a81611597565b602581527f4c49513a2041737365742062616c616e6365206265666f726520666c6173686c8d82015264037b0b71d160dd1b6040820152611733565b8a54166298968082018092116108b95790818b923b156108b55785838b610609604051988996879586946310ac2ddf60e21b8652306004870152850152604484015260a0606484015260a48301906116df565b82608483015203925af1908982156108a95788938a9361088d575b5050604051928380928882523060048301525afa9384156108825787918995610851575b50866040518094819382523060048301525afa8015610846578790610812575b61070891506106bf8460405161067d81611597565b602b81527f4c49513a20636f6c6c61746572616c2062616c616e6365206166746572206c698a8201526a038bab4b230ba34b7b71d160ad1b6040820152611733565b6040516106cb81611597565b602681527f4c49513a2041737365742062616c616e6365206166746572206c697175696461888201526503a34b7b71d160d51b6040820152611733565b8111156107ce576040805163a9059cbb60e01b868201908152338683019081526020810194909452879485949093919285929091610752918391015b03601f1981018352826115e8565b51925af161075e61178b565b81610796575b501561076e578280f35b9060026064926040519262461bcd60e51b845260048401528201526114d560f21b6044820152fd5b809150518381159182156107af575b5050905038610764565b838092935001031261034257826107c691016116c5565b8083386107a5565b60405162461bcd60e51b815260048101859052601d818501527f4c69717569646174696f6e206661696c65642c206e6f2070726f6669740000006044820152606490fd5b508581813d831161083f575b61082881836115e8565b8101031261083a576107089051610668565b600080fd5b503d61081e565b6040513d89823e3d90fd5b8281939296503d831161087b575b61086981836115e8565b8101031261083a578690519338610648565b503d61085f565b6040513d8a823e3d90fd5b90925061089b919350611584565b610414578686918938610624565b604051903d90823e3d90fd5b8280fd5b634e487b7160e01b8b526011600452888bfd5b508a81813d83116108f4575b6108e281836115e8565b8101031261083a576105b69051610569565b503d6108d8565b6040513d8e823e3d90fd5b813d8311610928575b61091981836115e8565b8101031261083a5789386104ce565b503d61090f565b9095508981813d8311610957575b61094781836115e8565b8101031261083a575194386104ac565b503d61093d565b6040513d8d823e3d90fd5b50346100b257806003193601126100b2576002546040516001600160a01b039091168152602090f35b50346100b2576109a1366114e2565b6002546001600160a01b03939291906109bd908516331461152e565b6109c681611620565b918391849186865416925b828110610a5057505050506109e581611620565b91835b828110610a305750505060405191602080840190808552835180925280604086019401925b828110610a1a5785850386f35b8351871685529381019392810192600101610a0d565b8086610a3f610a4b93856116b1565b511661028682876116b1565b6109e8565b610a5e610215828585611677565b604051632fe4a15f60e21b8152908916600482015260c0908181602481895afa918215610b2657908a949392918a92610ae6575b5050670de0b6b3a764000011610ab4575b610aac90611652565b9091506109d1565b94610ade610aac91610aca610215898887611677565b85610ad5838c6116b1565b91169052611652565b959050610aa3565b81939495508092503d8311610b1f575b610b0081836115e8565b810103126104145760a0015188929190670de0b6b3a764000038610a92565b503d610af6565b6040513d8b823e3d90fd5b90503461128e5760a036600319011261128e57610b4c6114cc565b906064356001600160a01b038116036108b5576001600160401b03608435116108b5573660236084350112156108b557608435600401356001600160401b038111610342576084350190366024830111610342576370a0823160e01b81523060048201526020816024816001600160a01b0387165afa8015610418578490611498575b610c1d9150604051610be081611597565b602581527f455845433a2041737365742062616c616e636520616674657220666c6173686c602082015264037b0b71d160dd1b6040820152611733565b82546001600160a01b03169033829003611445576060906084359003126108b55782610c4d60246084350161171f565b91610c976020610c6160446084350161171f565b60405163095ea7b360e01b81526001600160a01b0390941660048501526084356064013560248501529291829081906044820190565b0381866001600160a01b038a165af180156112d95761140c575b50610cf0604051610cc1816115b2565b6015815274022ac22a19d102232b13a103a379031b7bb32b91d1605d1b60208201526064608435013590611733565b8180604051610cfe816115b2565b6018815277022ac22a19d1021b7b63630ba32b930b61030b9b9b2ba1d160451b6020820152604051610d6a81610d4d602082019463319af33360e01b86526040602484015260648301906116df565b6001600160a01b038a16604483015203601f1981018352826115e8565b51906a636f6e736f6c652e6c6f675afa506040516370a0823160e01b81523060048201526020816024816001600160a01b0388165afa80156112d95783906113d8575b610e039150604051610dbe81611597565b602d81527f455845433a20636f6c6c61746572616c2062616c616e6365206265666f72652060208201526c03634b8bab4b230ba34b7b71d1609d1b6040820152611733565b81546001600160a01b0316803b156108b55760405162a718a960e01b81526001600160a01b0385811660048301528681166024830152909216604483015260848035606490810135908401528201839052909190829060a490829084905af18015610418576113c5575b506040516370a0823160e01b8152306004820152906020826024816001600160a01b0385165afa918215610418578492611391575b50610ef782604051610eb381611597565b602c81527f455845433a20436f6c6c61746572616c2062616c616e6365206166746572206c60208201526b034b8bab4b230ba34b7b71d160a51b6040820152611733565b60405163095ea7b360e01b602082019081527f00000000000000000000000000000000000000000000000000000000000000006001600160a01b03166024830152604482018490528591829190610f518160648101610744565b5190826001600160a01b0386165af1610f6861178b565b81611356575b501561132c57610f826044356024356116d2565b90610fc282604051610f93816115b2565b602081527f455845433a20416d6f756e74204173736574206f7574206d696e696d756d3a206020820152611733565b603c4201421161131857816298967f1981011161131857826062810204606214831517156113185760405192836101008101106001600160401b03610100860111176103f257610100840160409081526001600160a01b0392831685528583166020808701918252610bb8838801908152306060890190815242603c0160808a019081526298967f1990980160a08a01908152606460629790970287900460c08b0190815260e08b018d81529651631b67c43360e31b81529a51891660048c01529451881660248b0152915162ffffff1660448a01525186169488019490945294516084870152915160a4860152905160c485015251811660e4840152829061010490829087907f0000000000000000000000000000000000000000000000000000000000000000165af180156112d95783906112e4575b611172915060405161110b816115cd565b604981527f455845433a20416d6f756e74206f7574206166746572207377617070696e672060208201527f636f6c6c61746572616c6c20726563656976656420666f72206465627420746f6040820152680103830bc9023261d160bd1b6060820152611733565b6040516370a0823160e01b81523060048201526020816024816001600160a01b0386165afa9081156112d95783916112a5575b50611238916111ea6020926040516111bc816115b2565b601b81527f455845433a2041637475616c20617373657420616d6f756e743a20000000000085820152611733565b83546001600160a01b0316906112046044356024356116d2565b60405163095ea7b360e01b81526001600160a01b039093166004840152602483015290928391908290869082906044820190565b03926001600160a01b03165af1801561129a5761125b575b602060405160018152f35b6020813d602011611292575b81611274602093836115e8565b8101031261128e5761128691506116c5565b503880611250565b5080fd5b3d9150611267565b6040513d84823e3d90fd5b90506020813d6020116112d1575b816112c0602093836115e8565b8101031261083a57516112386111a5565b3d91506112b3565b6040513d85823e3d90fd5b506020813d602011611310575b816112fe602093836115e8565b8101031261083a5761117290516110fa565b3d91506112f1565b634e487b7160e01b85526011600452602485fd5b60405162461bcd60e51b8152602060048201526002602482015261534160f01b6044820152606490fd5b805180159250821561136b575b505038610f6e565b819250906020918101031261138d57602061138691016116c5565b3880611363565b8480fd5b9091506020813d6020116113bd575b816113ad602093836115e8565b8101031261083a57519038610ea2565b3d91506113a0565b6113d190939193611584565b9138610e6d565b506020813d602011611404575b816113f2602093836115e8565b810103126108b557610e039051610dad565b3d91506113e5565b6020813d60201161143d575b81611425602093836115e8565b810103126108b557611436906116c5565b5038610cb1565b3d9150611418565b60405162461bcd60e51b815260206004820152602560248201527f4f6e6c79204161766520706f6f6c2063616e2063616c6c20746869732066756e60448201526431ba34b7b760d91b6064820152608490fd5b506020813d6020116114c4575b816114b2602093836115e8565b8101031261034257610c1d9051610bcf565b3d91506114a5565b600435906001600160a01b038216820361083a57565b90602060031983011261083a576004356001600160401b039283821161083a578060238301121561083a57816004013593841161083a5760248460051b8301011161083a576024019190565b1561153557565b60405162461bcd60e51b815260206004820152602160248201527f4f6e6c79206f776e65722063616e2063616c6c20746869732066756e6374696f6044820152603760f91b6064820152608490fd5b6001600160401b0381116103f257604052565b606081019081106001600160401b038211176103f257604052565b604081019081106001600160401b038211176103f257604052565b608081019081106001600160401b038211176103f257604052565b90601f801991011681019081106001600160401b038211176103f257604052565b6001600160401b0381116103f25760051b60200190565b9061162a82611609565b61163760405191826115e8565b8281528092611648601f1991611609565b0190602036910137565b60001981146116615760010190565b634e487b7160e01b600052601160045260246000fd5b91908110156116875760051b0190565b634e487b7160e01b600052603260045260246000fd5b356001600160a01b038116810361083a5790565b80518210156116875760209160051b010190565b5190811515820361083a57565b9190820180921161166157565b919082519283825260005b84811061170b575050826000602080949584010152601f8019910116010190565b6020818301810151848301820152016116ea565b35906001600160a01b038216820361083a57565b600091908291611778604051809261176460208301956309710a9d60e41b87526040602485015260648401906116df565b90604483015203601f1981018352826115e8565b51906a636f6e736f6c652e6c6f675afa50565b3d156117c5573d906001600160401b0382116103f257604051916117b9601f8201601f1916602001846115e8565b82523d6000602084013e565b60609056fea2646970667358221220fc8ec1accb55f52c9d16607025c9958706b8b4a4c7701ea6c0435316aa3f107264736f6c63430008140033",
    "linkReferences": {}
  },
  "methodIdentifiers": {
    "areLiquidatable(address[])": "54ee9f22",
    "executeOperation(address,uint256,uint256,address,bytes)": "1b11d0ff",
    "getOwner()": "893d20e8",
    "getUserReservesData(address[])": "b11e6c73",
    "liquidate(address,address,address,uint256)": "aab3f868",
    "owner()": "8da5cb5b",
    "swapRouter()": "c31c9c07"
  },
  "id": 0
}